{
  "contractName": "OracleChainlink",
  "abi": [
    {
      "inputs": [],
      "stateMutability": "nonpayable",
      "type": "constructor"
    },
    {
      "anonymous": false,
      "inputs": [
        {
          "indexed": true,
          "internalType": "bytes32",
          "name": "id",
          "type": "bytes32"
        }
      ],
      "name": "ChainlinkCancelled",
      "type": "event"
    },
    {
      "anonymous": false,
      "inputs": [
        {
          "indexed": true,
          "internalType": "bytes32",
          "name": "id",
          "type": "bytes32"
        }
      ],
      "name": "ChainlinkFulfilled",
      "type": "event"
    },
    {
      "anonymous": false,
      "inputs": [
        {
          "indexed": true,
          "internalType": "bytes32",
          "name": "id",
          "type": "bytes32"
        }
      ],
      "name": "ChainlinkRequested",
      "type": "event"
    },
    {
      "inputs": [],
      "name": "H_Index",
      "outputs": [
        {
          "internalType": "uint256",
          "name": "",
          "type": "uint256"
        }
      ],
      "stateMutability": "view",
      "type": "function"
    },
    {
      "inputs": [
        {
          "internalType": "string",
          "name": "author_id",
          "type": "string"
        }
      ],
      "name": "RequestH_index",
      "outputs": [
        {
          "internalType": "bytes32",
          "name": "Reqid",
          "type": "bytes32"
        }
      ],
      "stateMutability": "nonpayable",
      "type": "function"
    },
    {
      "inputs": [
        {
          "internalType": "bytes32",
          "name": "Reqid",
          "type": "bytes32"
        },
        {
          "internalType": "uint256",
          "name": "_Hindex",
          "type": "uint256"
        }
      ],
      "name": "fulfill",
      "outputs": [],
      "stateMutability": "nonpayable",
      "type": "function"
    }
  ],
  "bytecode": "0x6080604052600160045534801561001557600080fd5b5061003973326c977e6efc84e512bb9c30f76e30c160ed06fb6100ec60201b60201c565b61005c73cc79157eb46f5624204f47ab42b3906caa40eab761013060201b60201c565b73cc79157eb46f5624204f47ab42b3906caa40eab7600760006101000a81548173ffffffffffffffffffffffffffffffffffffffff021916908373ffffffffffffffffffffffffffffffffffffffff1602179055507f636139383336366363373331343935376238633031326337326630356165656260088190555067016345785d8a0000600981905550610174565b80600260006101000a81548173ffffffffffffffffffffffffffffffffffffffff021916908373ffffffffffffffffffffffffffffffffffffffff16021790555050565b80600360006101000a81548173ffffffffffffffffffffffffffffffffffffffff021916908373ffffffffffffffffffffffffffffffffffffffff16021790555050565b611b1a806101836000396000f3fe608060405234801561001057600080fd5b50600436106100415760003560e01c80632e50539f146100465780634357855e146100765780638e63b27e14610092575b600080fd5b610060600480360381019061005b9190611233565b6100b0565b60405161006d91906114d2565b60405180910390f35b610090600480360381019061008b91906111f7565b610226565b005b61009a610337565b6040516100a7919061152d565b60405180910390f35b6000806100c760085430634357855e60e01b61033d565b90506000610123604051806060016040528060308152602001611ab560309139856040518060400160405280600e81526020017f3f6669656c64733d68496e64657800000000000000000000000000000000000081525061036e565b905061016f6040518060400160405280600381526020017f676574000000000000000000000000000000000000000000000000000000000081525082846103a49092919063ffffffff16565b6101ee6040518060400160405280600481526020017f70617468000000000000000000000000000000000000000000000000000000008152506040518060400160405280600781526020017f685f696e64657800000000000000000000000000000000000000000000000000815250846103a49092919063ffffffff16565b61021d600760009054906101000a900473ffffffffffffffffffffffffffffffffffffffff16836009546103d7565b92505050919050565b816005600082815260200190815260200160002060009054906101000a900473ffffffffffffffffffffffffffffffffffffffff1673ffffffffffffffffffffffffffffffffffffffff163373ffffffffffffffffffffffffffffffffffffffff16146102c8576040517f08c379a00000000000000000000000000000000000000000000000000000000081526004016102bf9061150d565b60405180910390fd5b6005600082815260200190815260200160002060006101000a81549073ffffffffffffffffffffffffffffffffffffffff0219169055807f7cc135e0cebb02c3480ae5d74d377283180a2601f8f644edf7987b009316c63a60405160405180910390a281600681905550505050565b60065481565b6103456110a0565b61034d6110a0565b610364858585846104a3909392919063ffffffff16565b9150509392505050565b606061039b8484846040518060200160405280600081525060405180602001604052806000815250610553565b90509392505050565b6103bb828460800151610a7090919063ffffffff16565b6103d2818460800151610a7090919063ffffffff16565b505050565b60008060045490506001816103ec91906115d6565b6004819055506000634042994660e01b60008087600001513089604001518760018c608001516000015160405160240161042d98979695949392919061140f565b604051602081830303815290604052907bffffffffffffffffffffffffffffffffffffffffffffffffffffffff19166020820180517bffffffffffffffffffffffffffffffffffffffffffffffffffffffff8381831617835250505050905061049886838684610a95565b925050509392505050565b6104ab6110a0565b6104bb8560800151610100610c39565b508385600001818152505082856020019073ffffffffffffffffffffffffffffffffffffffff16908173ffffffffffffffffffffffffffffffffffffffff16815250508185604001907bffffffffffffffffffffffffffffffffffffffffffffffffffffffff191690817bffffffffffffffffffffffffffffffffffffffffffffffffffffffff191681525050849050949350505050565b60606000869050600086905060008690506000869050600086905060008151835185518751895161058491906115d6565b61058e91906115d6565b61059891906115d6565b6105a291906115d6565b67ffffffffffffffff8111156105e1577f4e487b7100000000000000000000000000000000000000000000000000000000600052604160045260246000fd5b6040519080825280601f01601f1916602001820160405280156106135781602001600182028036833780820191505090505b5090506000819050600080600090505b88518110156106f757888181518110610665577f4e487b7100000000000000000000000000000000000000000000000000000000600052603260045260246000fd5b602001015160f81c60f81b83838061067c9061190f565b9450815181106106b5577f4e487b7100000000000000000000000000000000000000000000000000000000600052603260045260246000fd5b60200101907effffffffffffffffffffffffffffffffffffffffffffffffffffffffffffff1916908160001a90535080806106ef9061190f565b915050610623565b600090505b87518110156107d05787818151811061073e577f4e487b7100000000000000000000000000000000000000000000000000000000600052603260045260246000fd5b602001015160f81c60f81b8383806107559061190f565b94508151811061078e577f4e487b7100000000000000000000000000000000000000000000000000000000600052603260045260246000fd5b60200101907effffffffffffffffffffffffffffffffffffffffffffffffffffffffffffff1916908160001a90535080806107c89061190f565b9150506106fc565b600090505b86518110156108a957868181518110610817577f4e487b7100000000000000000000000000000000000000000000000000000000600052603260045260246000fd5b602001015160f81c60f81b83838061082e9061190f565b945081518110610867577f4e487b7100000000000000000000000000000000000000000000000000000000600052603260045260246000fd5b60200101907effffffffffffffffffffffffffffffffffffffffffffffffffffffffffffff1916908160001a90535080806108a19061190f565b9150506107d5565b600090505b8551811015610982578581815181106108f0577f4e487b7100000000000000000000000000000000000000000000000000000000600052603260045260246000fd5b602001015160f81c60f81b8383806109079061190f565b945081518110610940577f4e487b7100000000000000000000000000000000000000000000000000000000600052603260045260246000fd5b60200101907effffffffffffffffffffffffffffffffffffffffffffffffffffffffffffff1916908160001a905350808061097a9061190f565b9150506108ae565b600090505b8451811015610a5b578481815181106109c9577f4e487b7100000000000000000000000000000000000000000000000000000000600052603260045260246000fd5b602001015160f81c60f81b8383806109e09061190f565b945081518110610a19577f4e487b7100000000000000000000000000000000000000000000000000000000600052603260045260246000fd5b60200101907effffffffffffffffffffffffffffffffffffffffffffffffffffffffffffff1916908160001a9053508080610a539061190f565b915050610987565b82995050505050505050505095945050505050565b610a7d8260038351610ca3565b610a908183610e2890919063ffffffff16565b505050565b60003084604051602001610aaa9291906113e3565b604051602081830303815290604052805190602001209050846005600083815260200190815260200160002060006101000a81548173ffffffffffffffffffffffffffffffffffffffff021916908373ffffffffffffffffffffffffffffffffffffffff160217905550807fb5e6e01e79f91267dc17b4e6314d5d4d03593d2ceee0fbb452b750bd70ea5af960405160405180910390a2600260009054906101000a900473ffffffffffffffffffffffffffffffffffffffff1673ffffffffffffffffffffffffffffffffffffffff16634000aea08685856040518463ffffffff1660e01b8152600401610ba093929190611494565b602060405180830381600087803b158015610bba57600080fd5b505af1158015610bce573d6000803e3d6000fd5b505050506040513d601f19601f82011682018060405250810190610bf291906111ce565b610c31576040517f08c379a0000000000000000000000000000000000000000000000000000000008152600401610c28906114ed565b60405180910390fd5b949350505050565b610c4161110d565b6000602083610c509190611986565b14610c7c57602082610c629190611986565b6020610c6e91906117f7565b82610c7991906115d6565b91505b81836020018181525050604051808452600081528281016020016040525082905092915050565b60178167ffffffffffffffff1611610cda57610cd48160058460ff16901b60ff161784610e4a90919063ffffffff16565b50610e23565b60ff8167ffffffffffffffff1611610d3057610d09601860058460ff16901b1784610e4a90919063ffffffff16565b50610d2a8167ffffffffffffffff16600185610e6a9092919063ffffffff16565b50610e22565b61ffff8167ffffffffffffffff1611610d8757610d60601960058460ff16901b1784610e4a90919063ffffffff16565b50610d818167ffffffffffffffff16600285610e6a9092919063ffffffff16565b50610e21565b63ffffffff8167ffffffffffffffff1611610de057610db9601a60058460ff16901b1784610e4a90919063ffffffff16565b50610dda8167ffffffffffffffff16600485610e6a9092919063ffffffff16565b50610e20565b610dfd601b60058460ff16901b1784610e4a90919063ffffffff16565b50610e1e8167ffffffffffffffff16600885610e6a9092919063ffffffff16565b505b5b5b5b505050565b610e3061110d565b610e4283846000015151848551610e8c565b905092915050565b610e5261110d565b610e628384600001515184610f7b565b905092915050565b610e7261110d565b610e83848560000151518585610fd2565b90509392505050565b610e9461110d565b8251821115610ea257600080fd5b84602001518285610eb391906115d6565b1115610ee857610ee7856002610ed888602001518887610ed391906115d6565b611060565b610ee2919061179d565b61107c565b5b600080865180518760208301019350808887011115610f075787860182525b60208701925050505b60208410610f4e5780518252602082610f2991906115d6565b9150602081610f3891906115d6565b9050602084610f4791906117f7565b9350610f10565b60006001856020036101000a03905080198251168184511681811785525050508692505050949350505050565b610f8361110d565b83602001518310610fa957610fa88460028660200151610fa3919061179d565b61107c565b5b8351805160208583010184815381861415610fc5576001820183525b5050508390509392505050565b610fda61110d565b84602001518483610feb91906115d6565b111561101357611012856002868561100391906115d6565b61100d919061179d565b61107c565b5b6000600183610100611025919061167f565b61102f91906117f7565b905085518386820101858319825116178152815185880111156110525784870182525b505085915050949350505050565b60008183111561107257829050611076565b8190505b92915050565b60008260000151905061108f8383610c39565b5061109a8382610e28565b50505050565b6040518060a0016040528060008019168152602001600073ffffffffffffffffffffffffffffffffffffffff16815260200160007bffffffffffffffffffffffffffffffffffffffffffffffffffffffff191681526020016000815260200161110761110d565b81525090565b604051806040016040528060608152602001600081525090565b600061113a61113584611579565b611548565b90508281526020810184848401111561115257600080fd5b61115d8482856118cd565b509392505050565b60008151905061117481611a6f565b92915050565b60008135905061118981611a86565b92915050565b600082601f8301126111a057600080fd5b81356111b0848260208601611127565b91505092915050565b6000813590506111c881611a9d565b92915050565b6000602082840312156111e057600080fd5b60006111ee84828501611165565b91505092915050565b6000806040838503121561120a57600080fd5b60006112188582860161117a565b9250506020611229858286016111b9565b9150509250929050565b60006020828403121561124557600080fd5b600082013567ffffffffffffffff81111561125f57600080fd5b61126b8482850161118f565b91505092915050565b61127d8161182b565b82525050565b61128c81611849565b82525050565b61129b81611853565b82525050565b60006112ac826115a9565b6112b681856115b4565b93506112c68185602086016118dc565b6112cf81611a44565b840191505092915050565b6112eb6112e6826118a9565b611958565b82525050565b60006112fe6023836115c5565b91507f756e61626c6520746f207472616e73666572416e6443616c6c20746f206f726160008301527f636c6500000000000000000000000000000000000000000000000000000000006020830152604082019050919050565b60006113646028836115c5565b91507f536f75726365206d75737420626520746865206f7261636c65206f662074686560008301527f20726571756573740000000000000000000000000000000000000000000000006020830152604082019050919050565b6113c68161189f565b82525050565b6113dd6113d88261189f565b61197c565b82525050565b60006113ef82856112da565b6014820191506113ff82846113cc565b6020820191508190509392505050565b600061010082019050611425600083018b611274565b611432602083018a6113bd565b61143f6040830189611283565b61144c6060830188611274565b6114596080830187611292565b61146660a08301866113bd565b61147360c08301856113bd565b81810360e083015261148581846112a1565b90509998505050505050505050565b60006060820190506114a96000830186611274565b6114b660208301856113bd565b81810360408301526114c881846112a1565b9050949350505050565b60006020820190506114e76000830184611283565b92915050565b60006020820190508181036000830152611506816112f1565b9050919050565b6000602082019050818103600083015261152681611357565b9050919050565b600060208201905061154260008301846113bd565b92915050565b6000604051905081810181811067ffffffffffffffff8211171561156f5761156e611a15565b5b8060405250919050565b600067ffffffffffffffff82111561159457611593611a15565b5b601f19601f8301169050602081019050919050565b600081519050919050565b600082825260208201905092915050565b600082825260208201905092915050565b60006115e18261189f565b91506115ec8361189f565b9250827fffffffffffffffffffffffffffffffffffffffffffffffffffffffffffffffff03821115611621576116206119b7565b5b828201905092915050565b6000808291508390505b600185111561167657808604811115611652576116516119b7565b5b60018516156116615780820291505b808102905061166f85611a62565b9450611636565b94509492505050565b600061168a8261189f565b91506116958361189f565b92506116c27fffffffffffffffffffffffffffffffffffffffffffffffffffffffffffffffff84846116ca565b905092915050565b6000826116da5760019050611796565b816116e85760009050611796565b81600181146116fe576002811461170857611737565b6001915050611796565b60ff84111561171a576117196119b7565b5b8360020a915084821115611731576117306119b7565b5b50611796565b5060208310610133831016604e8410600b841016171561176c5782820a905083811115611767576117666119b7565b5b611796565b611779848484600161162c565b925090508184048111156117905761178f6119b7565b5b81810290505b9392505050565b60006117a88261189f565b91506117b38361189f565b9250817fffffffffffffffffffffffffffffffffffffffffffffffffffffffffffffffff04831182151516156117ec576117eb6119b7565b5b828202905092915050565b60006118028261189f565b915061180d8361189f565b9250828210156118205761181f6119b7565b5b828203905092915050565b60006118368261187f565b9050919050565b60008115159050919050565b6000819050919050565b60007fffffffff0000000000000000000000000000000000000000000000000000000082169050919050565b600073ffffffffffffffffffffffffffffffffffffffff82169050919050565b6000819050919050565b60006118b4826118bb565b9050919050565b60006118c68261187f565b9050919050565b82818337600083830152505050565b60005b838110156118fa5780820151818401526020810190506118df565b83811115611909576000848401525b50505050565b600061191a8261189f565b91507fffffffffffffffffffffffffffffffffffffffffffffffffffffffffffffffff82141561194d5761194c6119b7565b5b600182019050919050565b60006119638261196a565b9050919050565b600061197582611a55565b9050919050565b6000819050919050565b60006119918261189f565b915061199c8361189f565b9250826119ac576119ab6119e6565b5b828206905092915050565b7f4e487b7100000000000000000000000000000000000000000000000000000000600052601160045260246000fd5b7f4e487b7100000000000000000000000000000000000000000000000000000000600052601260045260246000fd5b7f4e487b7100000000000000000000000000000000000000000000000000000000600052604160045260246000fd5b6000601f19601f8301169050919050565b60008160601b9050919050565b60008160011c9050919050565b611a788161183d565b8114611a8357600080fd5b50565b611a8f81611849565b8114611a9a57600080fd5b50565b611aa68161189f565b8114611ab157600080fd5b5056fe68747470733a2f2f6170692e73656d616e7469637363686f6c61722e6f72672f67726170682f76312f617574686f722fa264697066735822122005e5c711d0645fcedadcf2e9b957d9d5e87c5c8e5d1ced206712bf14e5ee83b864736f6c63430008000033",
  "immutableReferences": {},
  "source": "// SPDX-License-Identifier: MIT\npragma solidity ^0.8.0;\n\nimport \"@chainlink/contracts/src/v0.8/ChainlinkClient.sol\";\n\n\ncontract OracleChainlink is ChainlinkClient {\n    using Chainlink for Chainlink.Request;\n\n    uint256 public H_Index;\n    address private Oracle;\n    bytes32 private JobId;\n    uint256 private Fee; \n\n    constructor() public {\n        setChainlinkToken(0x326C977E6efc84E512bB9C30f76E30c160eD06FB);\n        setChainlinkOracle(0xCC79157eb46F5624204f47AB42b3906cAA40eaB7);\n        Oracle = 0xCC79157eb46F5624204f47AB42b3906cAA40eaB7;\n        JobId = \"ca98366cc7314957b8c012c72f05aeeb\";\n        Fee = .1 * 10 ** 18; //kovan is .1 link per call\n    }\n\n    function RequestH_index(string memory author_id) public returns (bytes32 Reqid) {\n        Chainlink.Request memory Req = buildChainlinkRequest(JobId, address(this), this.fulfill.selector);\n        string memory url = strConcat(\"https://api.semanticscholar.org/graph/v1/author/\", author_id, \"?fields=hIndex\");\n        Req.add(\"get\", url);\n        Req.add(\"path\", \"h_index\");\n\n        return sendChainlinkRequestTo(Oracle, Req, Fee);        \n    }\n    \n    function fulfill(bytes32 Reqid, uint256 _Hindex) public recordChainlinkFulfillment(Reqid) {\n        H_Index = _Hindex;\n    }\n    \n    \n    //https://github.com/provable-things/ethereum-api/blob/master/oraclizeAPI_0.5.sol\n    function strConcat(string memory _a, string memory _b) internal pure returns (string memory _concatenatedString) {\n        return strConcat(_a, _b, \"\", \"\", \"\");\n    }\n\n    function strConcat(string memory _a, string memory _b, string memory _c) internal pure returns (string memory _concatenatedString) {\n        return strConcat(_a, _b, _c, \"\", \"\");\n    }\n\n    function strConcat(string memory _a, string memory _b, string memory _c, string memory _d) internal pure returns (string memory _concatenatedString) {\n        return strConcat(_a, _b, _c, _d, \"\");\n    }\n\n    function strConcat(string memory _a, string memory _b, string memory _c, string memory _d, string memory _e) internal pure returns (string memory _concatenatedString) {\n        bytes memory _ba = bytes(_a);\n        bytes memory _bb = bytes(_b);\n        bytes memory _bc = bytes(_c);\n        bytes memory _bd = bytes(_d);\n        bytes memory _be = bytes(_e);\n        string memory abcde = new string(_ba.length + _bb.length + _bc.length + _bd.length + _be.length);\n        bytes memory babcde = bytes(abcde);\n        uint k = 0;\n        uint i = 0;\n        for (i = 0; i < _ba.length; i++) {\n            babcde[k++] = _ba[i];\n        }\n        for (i = 0; i < _bb.length; i++) {\n            babcde[k++] = _bb[i];\n        }\n        for (i = 0; i < _bc.length; i++) {\n            babcde[k++] = _bc[i];\n        }\n        for (i = 0; i < _bd.length; i++) {\n            babcde[k++] = _bd[i];\n        }\n        for (i = 0; i < _be.length; i++) {\n            babcde[k++] = _be[i];\n        }\n        return string(babcde);\n    }\n}\n\n",
  "sourcePath": "/mnt/c/users/hocke/onedrive/aib/SCIENCE-index/TempOracleProj/contracts/OracleChainlink.sol",
  "compiler": {
    "name": "solc",
    "version": "0.8.0+commit.c7dfd78e.Emscripten.clang"
  },
  "schemaVersion": "3.4.10",
  "updatedAt": "2022-11-17T05:35:36.248Z",
  "devdoc": {
    "kind": "dev",
    "methods": {},
    "version": 1
  },
  "userdoc": {
    "kind": "user",
    "methods": {},
    "version": 1
  }
}