{
  "_format": "hh-sol-artifact-1",
  "contractName": "ScienceIndex",
  "sourceName": "contracts/scienceIndex.sol",
  "abi": [
    {
      "inputs": [
        {
          "internalType": "int256",
          "name": "yi",
          "type": "int256"
        },
        {
          "internalType": "int256",
          "name": "cl",
          "type": "int256"
        },
        {
          "internalType": "int256",
          "name": "pc",
          "type": "int256"
        },
        {
          "internalType": "int256",
          "name": "cc",
          "type": "int256"
        },
        {
          "internalType": "int256",
          "name": "dp",
          "type": "int256"
        },
        {
          "internalType": "int256",
          "name": "sm",
          "type": "int256"
        },
        {
          "internalType": "int256",
          "name": "ssd",
          "type": "int256"
        }
      ],
      "stateMutability": "nonpayable",
      "type": "constructor"
    },
    {
      "inputs": [
        {
          "internalType": "int256",
          "name": "x",
          "type": "int256"
        }
      ],
      "name": "PRBMathSD59x18__Exp2InputTooBig",
      "type": "error"
    },
    {
      "inputs": [
        {
          "internalType": "int256",
          "name": "x",
          "type": "int256"
        }
      ],
      "name": "PRBMathSD59x18__ExpInputTooBig",
      "type": "error"
    },
    {
      "inputs": [
        {
          "internalType": "int256",
          "name": "x",
          "type": "int256"
        }
      ],
      "name": "PRBMathSD59x18__SqrtNegativeInput",
      "type": "error"
    },
    {
      "inputs": [
        {
          "internalType": "int256",
          "name": "x",
          "type": "int256"
        }
      ],
      "name": "PRBMathSD59x18__SqrtOverflow",
      "type": "error"
    },
    {
      "anonymous": false,
      "inputs": [
        {
          "indexed": true,
          "internalType": "string",
          "name": "semanticID",
          "type": "string"
        },
        {
          "indexed": false,
          "internalType": "int256",
          "name": "scienceIndex",
          "type": "int256"
        },
        {
          "indexed": false,
          "internalType": "int256",
          "name": "hIndex",
          "type": "int256"
        },
        {
          "indexed": false,
          "internalType": "int256",
          "name": "careerLength",
          "type": "int256"
        },
        {
          "indexed": false,
          "internalType": "int256",
          "name": "paperCount",
          "type": "int256"
        },
        {
          "indexed": false,
          "internalType": "int256",
          "name": "citationCount",
          "type": "int256"
        }
      ],
      "name": "scienceIndexUpdate",
      "type": "event"
    },
    {
      "inputs": [],
      "name": "careerLength",
      "outputs": [
        {
          "internalType": "int256",
          "name": "",
          "type": "int256"
        }
      ],
      "stateMutability": "view",
      "type": "function"
    },
    {
      "inputs": [],
      "name": "citationCount",
      "outputs": [
        {
          "internalType": "int256",
          "name": "",
          "type": "int256"
        }
      ],
      "stateMutability": "view",
      "type": "function"
    },
    {
      "inputs": [],
      "name": "dataPoints",
      "outputs": [
        {
          "internalType": "int256",
          "name": "",
          "type": "int256"
        }
      ],
      "stateMutability": "view",
      "type": "function"
    },
    {
      "inputs": [
        {
          "internalType": "string",
          "name": "semanticID",
          "type": "string"
        },
        {
          "internalType": "int256",
          "name": "hi",
          "type": "int256"
        },
        {
          "internalType": "int256",
          "name": "cl",
          "type": "int256"
        },
        {
          "internalType": "int256",
          "name": "pc",
          "type": "int256"
        },
        {
          "internalType": "int256",
          "name": "cc",
          "type": "int256"
        }
      ],
      "name": "getScienceIndex",
      "outputs": [],
      "stateMutability": "nonpayable",
      "type": "function"
    },
    {
      "inputs": [],
      "name": "paperCount",
      "outputs": [
        {
          "internalType": "int256",
          "name": "",
          "type": "int256"
        }
      ],
      "stateMutability": "view",
      "type": "function"
    },
    {
      "inputs": [],
      "name": "sampleMean",
      "outputs": [
        {
          "internalType": "int256",
          "name": "",
          "type": "int256"
        }
      ],
      "stateMutability": "view",
      "type": "function"
    },
    {
      "inputs": [],
      "name": "sampleStandardDeviation",
      "outputs": [
        {
          "internalType": "int256",
          "name": "",
          "type": "int256"
        }
      ],
      "stateMutability": "view",
      "type": "function"
    },
    {
      "inputs": [],
      "name": "yIntercept",
      "outputs": [
        {
          "internalType": "int256",
          "name": "",
          "type": "int256"
        }
      ],
      "stateMutability": "view",
      "type": "function"
    }
  ],
  "bytecode": "0x60806040523480156200001157600080fd5b50604051620017c8380380620017c88339818101604052810190620000379190620000b5565b866000819055508560018190555084600281905550836003819055508260048190555081600581905550806006819055505050505050505062000168565b600080fd5b6000819050919050565b6200008f816200007a565b81146200009b57600080fd5b50565b600081519050620000af8162000084565b92915050565b600080600080600080600060e0888a031215620000d757620000d662000075565b5b6000620000e78a828b016200009e565b9750506020620000fa8a828b016200009e565b96505060406200010d8a828b016200009e565b9550506060620001208a828b016200009e565b9450506080620001338a828b016200009e565b93505060a0620001468a828b016200009e565b92505060c0620001598a828b016200009e565b91505092959891949750929550565b61165080620001786000396000f3fe608060405234801561001057600080fd5b50600436106100885760003560e01c8063818847561161005b578063818847561461010357806383f324dc14610121578063a56c2cb91461013f578063cc5c0b6d1461015d57610088565b80632d8b3ee81461008d578063324a6816146100ab5780635c3b055d146100c95780636c03b01f146100e7575b600080fd5b61009561017b565b6040516100a29190611140565b60405180910390f35b6100b3610181565b6040516100c09190611140565b60405180910390f35b6100d1610187565b6040516100de9190611140565b60405180910390f35b61010160048036038101906100fc91906112e1565b61018d565b005b61010b6101f4565b6040516101189190611140565b60405180910390f35b6101296101fa565b6040516101369190611140565b60405180910390f35b610147610200565b6040516101549190611140565b60405180910390f35b610165610206565b6040516101729190611140565b60405180910390f35b60045481565b60055481565b60005481565b8460405161019b91906113e9565b60405180910390207f458df47e0678c1abf8b5c0bc504b9d474c0d1dd13f1fb8390a60597acb000f716101d08686868661020c565b868686866040516101e5959493929190611400565b60405180910390a25050505050565b60035481565b60065481565b60025481565b60015481565b6000808260035461021d9190611482565b8460025461022b9190611482565b866001546102399190611482565b60005461024691906114fa565b61025091906114fa565b61025a91906114fa565b670de0b6b3a76400008761026e9190611482565b610278919061153e565b905061028381610312565b6000600654670de0b6b3a76400006005548461029f919061153e565b6102a99190611482565b6102b391906115b0565b90506102be8161040a565b6ec097ce7bc90715b34b9f10000000006102d891906115b0565b670de0b6b3a76400006102eb91906114fa565b6f0785ee10d5da46d900f436a00000000061030691906115b0565b92505050949350505050565b6000816004546005546103259190611482565b61032f91906114fa565b905060016004600082825461034491906114fa565b925050819055506004548161035991906115b0565b90506103f9600160045461036d919061153e565b670de0b6b3a764000060055485610384919061153e565b8486610390919061153e565b61039a9190611482565b6103a491906115b0565b670de0b6b3a764000060065460065460026004546103c2919061153e565b6103cc9190611482565b6103d69190611482565b6103e091906115b0565b6103ea91906114fa565b6103f491906115b0565b6104cd565b600681905550806005819055505050565b60007ffffffffffffffffffffffffffffffffffffffffffffffffdc0d0570925a462ce82121561043d57600090506104c8565b680736ea4425c11ac631821261048a57816040517f99bb75410000000000000000000000000000000000000000000000000000000081526004016104819190611140565b60405180910390fd5b60006714057b7ef767814f830290506104c4670de0b6b3a76400006706f05b59d3b200008301816104be576104bd611581565b5b056105ab565b9150505b919050565b60008082121561051457816040517fc11907fe00000000000000000000000000000000000000000000000000000000815260040161050b9190611140565b60405180910390fd5b670de0b6b3a76400007f7fffffffffffffffffffffffffffffffffffffffffffffffffffffffffffffff8161054c5761054b611581565b5b0582131561059157816040517f2c482c390000000000000000000000000000000000000000000000000000000081526004016105889190611140565b60405180910390fd5b6105a4670de0b6b3a76400008302610699565b9050919050565b600080821215610618577ffffffffffffffffffffffffffffffffffffffffffffffffcc22e87f6eb468eeb8212156105e65760009050610694565b6105f2826000036105ab565b6ec097ce7bc90715b34b9f1000000000816106105761060f611581565b5b059050610693565b680a688906bd8b000000821261066557816040517fe69458f900000000000000000000000000000000000000000000000000000000815260040161065c9190611140565b60405180910390fd5b6000670de0b6b3a7640000604084901b8161068357610682611581565b5b04905061068f8161084b565b9150505b5b919050565b60008082036106ab5760009050610846565b60008290506001915070010000000000000000000000000000000081106106db57608081901c9050604082901b91505b6801000000000000000081106106fa57604081901c9050602082901b91505b640100000000811061071557602081901c9050601082901b91505b62010000811061072e57601081901c9050600882901b91505b610100811061074657600881901c9050600482901b91505b6010811061075d57600481901c9050600282901b91505b6004811061076d57600182901b91505b600182848161077f5761077e611581565b5b048301901c9150600182848161079857610797611581565b5b048301901c915060018284816107b1576107b0611581565b5b048301901c915060018284816107ca576107c9611581565b5b048301901c915060018284816107e3576107e2611581565b5b048301901c915060018284816107fc576107fb611581565b5b048301901c9150600182848161081557610814611581565b5b048301901c9150600082848161082e5761082d611581565b5b0490508083101561083f5782610841565b805b925050505b919050565b600077800000000000000000000000000000000000000000000000905060006780000000000000008316111561088e57604068016a09e667f3bcc9098202901c90505b6000674000000000000000831611156108b45760406801306fe0a31b7152df8202901c90505b6000672000000000000000831611156108da5760406801172b83c7d517adce8202901c90505b60006710000000000000008316111561090057604068010b5586cf9890f62a8202901c90505b6000670800000000000000831611156109265760406801059b0d31585743ae8202901c90505b60006704000000000000008316111561094c576040680102c9a3e778060ee78202901c90505b60006702000000000000008316111561097257604068010163da9fb33356d88202901c90505b600067010000000000000083161115610998576040680100b1afa5abcbed618202901c90505b60006680000000000000831611156109bd57604068010058c86da1c09ea28202901c90505b60006640000000000000831611156109e25760406801002c605e2e8cec508202901c90505b6000662000000000000083161115610a07576040680100162f3904051fa18202901c90505b6000661000000000000083161115610a2c5760406801000b175effdc76ba8202901c90505b6000660800000000000083161115610a51576040680100058ba01fb9f96d8202901c90505b6000660400000000000083161115610a7657604068010002c5cc37da94928202901c90505b6000660200000000000083161115610a9b5760406801000162e525ee05478202901c90505b6000660100000000000083161115610ac057604068010000b17255775c048202901c90505b60006580000000000083161115610ae45760406801000058b91b5bc9ae8202901c90505b60006540000000000083161115610b08576040680100002c5c89d5ec6d8202901c90505b60006520000000000083161115610b2c57604068010000162e43f4f8318202901c90505b60006510000000000083161115610b50576040680100000b1721bcfc9a8202901c90505b60006508000000000083161115610b7457604068010000058b90cf1e6e8202901c90505b60006504000000000083161115610b985760406801000002c5c863b73f8202901c90505b60006502000000000083161115610bbc576040680100000162e430e5a28202901c90505b60006501000000000083161115610be05760406801000000b1721835518202901c90505b600064800000000083161115610c03576040680100000058b90c0b498202901c90505b600064400000000083161115610c2657604068010000002c5c8601cc8202901c90505b600064200000000083161115610c495760406801000000162e42fff08202901c90505b600064100000000083161115610c6c57604068010000000b17217fbb8202901c90505b600064080000000083161115610c8f5760406801000000058b90bfce8202901c90505b600064040000000083161115610cb2576040680100000002c5c85fe38202901c90505b600064020000000083161115610cd557604068010000000162e42ff18202901c90505b600064010000000083161115610cf8576040680100000000b17217f88202901c90505b6000638000000083161115610d1a57604068010000000058b90bfc8202901c90505b6000634000000083161115610d3c5760406801000000002c5c85fe8202901c90505b6000632000000083161115610d5e576040680100000000162e42ff8202901c90505b6000631000000083161115610d805760406801000000000b17217f8202901c90505b6000630800000083161115610da2576040680100000000058b90c08202901c90505b6000630400000083161115610dc457604068010000000002c5c8608202901c90505b6000630200000083161115610de65760406801000000000162e4308202901c90505b6000630100000083161115610e0857604068010000000000b172188202901c90505b60006280000083161115610e295760406801000000000058b90c8202901c90505b60006240000083161115610e4a576040680100000000002c5c868202901c90505b60006220000083161115610e6b57604068010000000000162e438202901c90505b60006210000083161115610e8c576040680100000000000b17218202901c90505b60006208000083161115610ead57604068010000000000058b918202901c90505b60006204000083161115610ece5760406801000000000002c5c88202901c90505b60006202000083161115610eef576040680100000000000162e48202901c90505b60006201000083161115610f105760406801000000000000b1728202901c90505b600061800083161115610f30576040680100000000000058b98202901c90505b600061400083161115610f5057604068010000000000002c5d8202901c90505b600061200083161115610f705760406801000000000000162e8202901c90505b600061100083161115610f9057604068010000000000000b178202901c90505b600061080083161115610fb05760406801000000000000058c8202901c90505b600061040083161115610fd0576040680100000000000002c68202901c90505b600061020083161115610ff0576040680100000000000001638202901c90505b600061010083161115611010576040680100000000000000b18202901c90505b600060808316111561102f576040680100000000000000598202901c90505b600060408316111561104e5760406801000000000000002c8202901c90505b600060208316111561106d576040680100000000000000168202901c90505b600060108316111561108c5760406801000000000000000b8202901c90505b60006008831611156110ab576040680100000000000000068202901c90505b60006004831611156110ca576040680100000000000000038202901c90505b60006002831611156110e9576040680100000000000000018202901c90505b6000600183161115611108576040680100000000000000018202901c90505b670de0b6b3a764000081029050604082901c60bf0381901c9050919050565b6000819050919050565b61113a81611127565b82525050565b60006020820190506111556000830184611131565b92915050565b6000604051905090565b600080fd5b600080fd5b600080fd5b600080fd5b6000601f19601f8301169050919050565b7f4e487b7100000000000000000000000000000000000000000000000000000000600052604160045260246000fd5b6111c282611179565b810181811067ffffffffffffffff821117156111e1576111e061118a565b5b80604052505050565b60006111f461115b565b905061120082826111b9565b919050565b600067ffffffffffffffff8211156112205761121f61118a565b5b61122982611179565b9050602081019050919050565b82818337600083830152505050565b600061125861125384611205565b6111ea565b90508281526020810184848401111561127457611273611174565b5b61127f848285611236565b509392505050565b600082601f83011261129c5761129b61116f565b5b81356112ac848260208601611245565b91505092915050565b6112be81611127565b81146112c957600080fd5b50565b6000813590506112db816112b5565b92915050565b600080600080600060a086880312156112fd576112fc611165565b5b600086013567ffffffffffffffff81111561131b5761131a61116a565b5b61132788828901611287565b9550506020611338888289016112cc565b9450506040611349888289016112cc565b935050606061135a888289016112cc565b925050608061136b888289016112cc565b9150509295509295909350565b600081519050919050565b600081905092915050565b60005b838110156113ac578082015181840152602081019050611391565b60008484015250505050565b60006113c382611378565b6113cd8185611383565b93506113dd81856020860161138e565b80840191505092915050565b60006113f582846113b8565b915081905092915050565b600060a0820190506114156000830188611131565b6114226020830187611131565b61142f6040830186611131565b61143c6060830185611131565b6114496080830184611131565b9695505050505050565b7f4e487b7100000000000000000000000000000000000000000000000000000000600052601160045260246000fd5b600061148d82611127565b915061149883611127565b92508282026114a681611127565b91507f800000000000000000000000000000000000000000000000000000000000000084146000841216156114de576114dd611453565b5b82820584148315176114f3576114f2611453565b5b5092915050565b600061150582611127565b915061151083611127565b92508282019050828112156000831216838212600084121516171561153857611537611453565b5b92915050565b600061154982611127565b915061155483611127565b925082820390508181126000841216828213600085121516171561157b5761157a611453565b5b92915050565b7f4e487b7100000000000000000000000000000000000000000000000000000000600052601260045260246000fd5b60006115bb82611127565b91506115c683611127565b9250826115d6576115d5611581565b5b600160000383147f80000000000000000000000000000000000000000000000000000000000000008314161561160f5761160e611453565b5b82820590509291505056fea26469706673582212207353b6be6bdc6163f252361d7912720d4f0a42d5835551b925bd7cabff8087d464736f6c63430008110033",
  "linkReferences": {},
  "deployedLinkReferences": {}
}