{
    "_format": "hh-sol-artifact-1",
    "contractName": "ScienceIndex",
    "sourceName": "contracts/scienceIndex.sol",
    "abi": [
        {
            "inputs": [
                {
                    "internalType": "int256",
                    "name": "yi",
                    "type": "int256"
                },
                {
                    "internalType": "int256",
                    "name": "cl",
                    "type": "int256"
                },
                {
                    "internalType": "int256",
                    "name": "pc",
                    "type": "int256"
                },
                {
                    "internalType": "int256",
                    "name": "cc",
                    "type": "int256"
                },
                {
                    "internalType": "int256",
                    "name": "dp",
                    "type": "int256"
                },
                {
                    "internalType": "int256",
                    "name": "sm",
                    "type": "int256"
                },
                {
                    "internalType": "int256",
                    "name": "ssd",
                    "type": "int256"
                }
            ],
            "stateMutability": "nonpayable",
            "type": "constructor"
        },
        {
            "inputs": [
                {
                    "internalType": "int256",
                    "name": "x",
                    "type": "int256"
                }
            ],
            "name": "PRBMathSD59x18__Exp2InputTooBig",
            "type": "error"
        },
        {
            "inputs": [
                {
                    "internalType": "int256",
                    "name": "x",
                    "type": "int256"
                }
            ],
            "name": "PRBMathSD59x18__ExpInputTooBig",
            "type": "error"
        },
        {
            "inputs": [
                {
                    "internalType": "int256",
                    "name": "x",
                    "type": "int256"
                }
            ],
            "name": "PRBMathSD59x18__SqrtNegativeInput",
            "type": "error"
        },
        {
            "inputs": [
                {
                    "internalType": "int256",
                    "name": "x",
                    "type": "int256"
                }
            ],
            "name": "PRBMathSD59x18__SqrtOverflow",
            "type": "error"
        },
        {
            "anonymous": false,
            "inputs": [
                {
                    "indexed": true,
                    "internalType": "string",
                    "name": "semanticID",
                    "type": "string"
                },
                {
                    "indexed": false,
                    "internalType": "int256",
                    "name": "scienceIndex",
                    "type": "int256"
                },
                {
                    "indexed": false,
                    "internalType": "int256",
                    "name": "hIndex",
                    "type": "int256"
                },
                {
                    "indexed": false,
                    "internalType": "int256",
                    "name": "careerLength",
                    "type": "int256"
                },
                {
                    "indexed": false,
                    "internalType": "int256",
                    "name": "paperCount",
                    "type": "int256"
                },
                {
                    "indexed": false,
                    "internalType": "int256",
                    "name": "citationCount",
                    "type": "int256"
                }
            ],
            "name": "scienceIndexUpdate",
            "type": "event"
        },
        {
            "inputs": [],
            "name": "careerLength",
            "outputs": [
                {
                    "internalType": "int256",
                    "name": "",
                    "type": "int256"
                }
            ],
            "stateMutability": "view",
            "type": "function"
        },
        {
            "inputs": [],
            "name": "citationCount",
            "outputs": [
                {
                    "internalType": "int256",
                    "name": "",
                    "type": "int256"
                }
            ],
            "stateMutability": "view",
            "type": "function"
        },
        {
            "inputs": [],
            "name": "dataPoints",
            "outputs": [
                {
                    "internalType": "int256",
                    "name": "",
                    "type": "int256"
                }
            ],
            "stateMutability": "view",
            "type": "function"
        },
        {
            "inputs": [
                {
                    "internalType": "string",
                    "name": "semanticID",
                    "type": "string"
                }
            ],
            "name": "getScienceIndex",
            "outputs": [],
            "stateMutability": "nonpayable",
            "type": "function"
        },
        {
            "inputs": [],
            "name": "paperCount",
            "outputs": [
                {
                    "internalType": "int256",
                    "name": "",
                    "type": "int256"
                }
            ],
            "stateMutability": "view",
            "type": "function"
        },
        {
            "inputs": [],
            "name": "sampleMean",
            "outputs": [
                {
                    "internalType": "int256",
                    "name": "",
                    "type": "int256"
                }
            ],
            "stateMutability": "view",
            "type": "function"
        },
        {
            "inputs": [],
            "name": "sampleStandardDeviation",
            "outputs": [
                {
                    "internalType": "int256",
                    "name": "",
                    "type": "int256"
                }
            ],
            "stateMutability": "view",
            "type": "function"
        },
        {
            "inputs": [],
            "name": "yIntercept",
            "outputs": [
                {
                    "internalType": "int256",
                    "name": "",
                    "type": "int256"
                }
            ],
            "stateMutability": "view",
            "type": "function"
        }
    ],
    "bytecode": "0x60806040523480156200001157600080fd5b5060405162001783380380620017838339818101604052810190620000379190620000b5565b866000819055508560018190555084600281905550836003819055508260048190555081600581905550806006819055505050505050505062000168565b600080fd5b6000819050919050565b6200008f816200007a565b81146200009b57600080fd5b50565b600081519050620000af8162000084565b92915050565b600080600080600080600060e0888a031215620000d757620000d662000075565b5b6000620000e78a828b016200009e565b9750506020620000fa8a828b016200009e565b96505060406200010d8a828b016200009e565b9550506060620001208a828b016200009e565b9450506080620001338a828b016200009e565b93505060a0620001468a828b016200009e565b92505060c0620001598a828b016200009e565b91505092959891949750929550565b61160b80620001786000396000f3fe608060405234801561001057600080fd5b50600436106100885760003560e01c8063818847561161005b578063818847561461010357806383f324dc14610121578063a56c2cb91461013f578063cc5c0b6d1461015d57610088565b8063067c0fa31461008d5780632d8b3ee8146100a9578063324a6816146100c75780635c3b055d146100e5575b600080fd5b6100a760048036038101906100a291906112b6565b61017b565b005b6100b16101f9565b6040516100be9190611318565b60405180910390f35b6100cf6101ff565b6040516100dc9190611318565b60405180910390f35b6100ed610205565b6040516100fa9190611318565b60405180910390f35b61010b61020b565b6040516101189190611318565b60405180910390f35b610129610211565b6040516101369190611318565b60405180910390f35b610147610217565b6040516101549190611318565b60405180910390f35b61016561021d565b6040516101729190611318565b60405180910390f35b60008060008061018a85610223565b9350935093509350846040516101a091906113a4565b60405180910390207f458df47e0678c1abf8b5c0bc504b9d474c0d1dd13f1fb8390a60597acb000f716101d586868686610241565b868686866040516101ea9594939291906113bb565b60405180910390a25050505050565b60045481565b60055481565b60005481565b60035481565b60065481565b60025481565b60015481565b600080600080600c935060099250604f91506101b290509193509193565b60008082600354610252919061143d565b84600254610260919061143d565b8660015461026e919061143d565b60005461027b91906114b5565b61028591906114b5565b61028f91906114b5565b670de0b6b3a7640000876102a3919061143d565b6102ad91906114f9565b90506102b881610347565b6000600654670de0b6b3a7640000600554846102d491906114f9565b6102de919061143d565b6102e8919061156b565b90506102f38161043f565b6ec097ce7bc90715b34b9f100000000061030d919061156b565b670de0b6b3a764000061032091906114b5565b6f0785ee10d5da46d900f436a00000000061033b919061156b565b92505050949350505050565b60008160045460055461035a919061143d565b61036491906114b5565b905060016004600082825461037991906114b5565b925050819055506004548161038e919061156b565b905061042e60016004546103a291906114f9565b670de0b6b3a7640000600554856103b991906114f9565b84866103c591906114f9565b6103cf919061143d565b6103d9919061156b565b670de0b6b3a764000060065460065460026004546103f791906114f9565b610401919061143d565b61040b919061143d565b610415919061156b565b61041f91906114b5565b610429919061156b565b610502565b600681905550806005819055505050565b60007ffffffffffffffffffffffffffffffffffffffffffffffffdc0d0570925a462ce82121561047257600090506104fd565b680736ea4425c11ac63182126104bf57816040517f99bb75410000000000000000000000000000000000000000000000000000000081526004016104b69190611318565b60405180910390fd5b60006714057b7ef767814f830290506104f9670de0b6b3a76400006706f05b59d3b200008301816104f3576104f261153c565b5b056105e0565b9150505b919050565b60008082121561054957816040517fc11907fe0000000000000000000000000000000000000000000000000000000081526004016105409190611318565b60405180910390fd5b670de0b6b3a76400007f7fffffffffffffffffffffffffffffffffffffffffffffffffffffffffffffff816105815761058061153c565b5b058213156105c657816040517f2c482c390000000000000000000000000000000000000000000000000000000081526004016105bd9190611318565b60405180910390fd5b6105d9670de0b6b3a764000083026106ce565b9050919050565b60008082121561064d577ffffffffffffffffffffffffffffffffffffffffffffffffcc22e87f6eb468eeb82121561061b57600090506106c9565b610627826000036105e0565b6ec097ce7bc90715b34b9f1000000000816106455761064461153c565b5b0590506106c8565b680a688906bd8b000000821261069a57816040517fe69458f90000000000000000000000000000000000000000000000000000000081526004016106919190611318565b60405180910390fd5b6000670de0b6b3a7640000604084901b816106b8576106b761153c565b5b0490506106c481610880565b9150505b5b919050565b60008082036106e0576000905061087b565b600082905060019150700100000000000000000000000000000000811061071057608081901c9050604082901b91505b68010000000000000000811061072f57604081901c9050602082901b91505b640100000000811061074a57602081901c9050601082901b91505b62010000811061076357601081901c9050600882901b91505b610100811061077b57600881901c9050600482901b91505b6010811061079257600481901c9050600282901b91505b600481106107a257600182901b91505b60018284816107b4576107b361153c565b5b048301901c915060018284816107cd576107cc61153c565b5b048301901c915060018284816107e6576107e561153c565b5b048301901c915060018284816107ff576107fe61153c565b5b048301901c915060018284816108185761081761153c565b5b048301901c915060018284816108315761083061153c565b5b048301901c9150600182848161084a5761084961153c565b5b048301901c915060008284816108635761086261153c565b5b049050808310156108745782610876565b805b925050505b919050565b60007780000000000000000000000000000000000000000000000090506000678000000000000000831611156108c357604068016a09e667f3bcc9098202901c90505b6000674000000000000000831611156108e95760406801306fe0a31b7152df8202901c90505b60006720000000000000008316111561090f5760406801172b83c7d517adce8202901c90505b60006710000000000000008316111561093557604068010b5586cf9890f62a8202901c90505b60006708000000000000008316111561095b5760406801059b0d31585743ae8202901c90505b600067040000000000000083161115610981576040680102c9a3e778060ee78202901c90505b6000670200000000000000831611156109a757604068010163da9fb33356d88202901c90505b6000670100000000000000831611156109cd576040680100b1afa5abcbed618202901c90505b60006680000000000000831611156109f257604068010058c86da1c09ea28202901c90505b6000664000000000000083161115610a175760406801002c605e2e8cec508202901c90505b6000662000000000000083161115610a3c576040680100162f3904051fa18202901c90505b6000661000000000000083161115610a615760406801000b175effdc76ba8202901c90505b6000660800000000000083161115610a86576040680100058ba01fb9f96d8202901c90505b6000660400000000000083161115610aab57604068010002c5cc37da94928202901c90505b6000660200000000000083161115610ad05760406801000162e525ee05478202901c90505b6000660100000000000083161115610af557604068010000b17255775c048202901c90505b60006580000000000083161115610b195760406801000058b91b5bc9ae8202901c90505b60006540000000000083161115610b3d576040680100002c5c89d5ec6d8202901c90505b60006520000000000083161115610b6157604068010000162e43f4f8318202901c90505b60006510000000000083161115610b85576040680100000b1721bcfc9a8202901c90505b60006508000000000083161115610ba957604068010000058b90cf1e6e8202901c90505b60006504000000000083161115610bcd5760406801000002c5c863b73f8202901c90505b60006502000000000083161115610bf1576040680100000162e430e5a28202901c90505b60006501000000000083161115610c155760406801000000b1721835518202901c90505b600064800000000083161115610c38576040680100000058b90c0b498202901c90505b600064400000000083161115610c5b57604068010000002c5c8601cc8202901c90505b600064200000000083161115610c7e5760406801000000162e42fff08202901c90505b600064100000000083161115610ca157604068010000000b17217fbb8202901c90505b600064080000000083161115610cc45760406801000000058b90bfce8202901c90505b600064040000000083161115610ce7576040680100000002c5c85fe38202901c90505b600064020000000083161115610d0a57604068010000000162e42ff18202901c90505b600064010000000083161115610d2d576040680100000000b17217f88202901c90505b6000638000000083161115610d4f57604068010000000058b90bfc8202901c90505b6000634000000083161115610d715760406801000000002c5c85fe8202901c90505b6000632000000083161115610d93576040680100000000162e42ff8202901c90505b6000631000000083161115610db55760406801000000000b17217f8202901c90505b6000630800000083161115610dd7576040680100000000058b90c08202901c90505b6000630400000083161115610df957604068010000000002c5c8608202901c90505b6000630200000083161115610e1b5760406801000000000162e4308202901c90505b6000630100000083161115610e3d57604068010000000000b172188202901c90505b60006280000083161115610e5e5760406801000000000058b90c8202901c90505b60006240000083161115610e7f576040680100000000002c5c868202901c90505b60006220000083161115610ea057604068010000000000162e438202901c90505b60006210000083161115610ec1576040680100000000000b17218202901c90505b60006208000083161115610ee257604068010000000000058b918202901c90505b60006204000083161115610f035760406801000000000002c5c88202901c90505b60006202000083161115610f24576040680100000000000162e48202901c90505b60006201000083161115610f455760406801000000000000b1728202901c90505b600061800083161115610f65576040680100000000000058b98202901c90505b600061400083161115610f8557604068010000000000002c5d8202901c90505b600061200083161115610fa55760406801000000000000162e8202901c90505b600061100083161115610fc557604068010000000000000b178202901c90505b600061080083161115610fe55760406801000000000000058c8202901c90505b600061040083161115611005576040680100000000000002c68202901c90505b600061020083161115611025576040680100000000000001638202901c90505b600061010083161115611045576040680100000000000000b18202901c90505b6000608083161115611064576040680100000000000000598202901c90505b60006040831611156110835760406801000000000000002c8202901c90505b60006020831611156110a2576040680100000000000000168202901c90505b60006010831611156110c15760406801000000000000000b8202901c90505b60006008831611156110e0576040680100000000000000068202901c90505b60006004831611156110ff576040680100000000000000038202901c90505b600060028316111561111e576040680100000000000000018202901c90505b600060018316111561113d576040680100000000000000018202901c90505b670de0b6b3a764000081029050604082901c60bf0381901c9050919050565b6000604051905090565b600080fd5b600080fd5b600080fd5b600080fd5b6000601f19601f8301169050919050565b7f4e487b7100000000000000000000000000000000000000000000000000000000600052604160045260246000fd5b6111c38261117a565b810181811067ffffffffffffffff821117156111e2576111e161118b565b5b80604052505050565b60006111f561115c565b905061120182826111ba565b919050565b600067ffffffffffffffff8211156112215761122061118b565b5b61122a8261117a565b9050602081019050919050565b82818337600083830152505050565b600061125961125484611206565b6111eb565b90508281526020810184848401111561127557611274611175565b5b611280848285611237565b509392505050565b600082601f83011261129d5761129c611170565b5b81356112ad848260208601611246565b91505092915050565b6000602082840312156112cc576112cb611166565b5b600082013567ffffffffffffffff8111156112ea576112e961116b565b5b6112f684828501611288565b91505092915050565b6000819050919050565b611312816112ff565b82525050565b600060208201905061132d6000830184611309565b92915050565b600081519050919050565b600081905092915050565b60005b8381101561136757808201518184015260208101905061134c565b60008484015250505050565b600061137e82611333565b611388818561133e565b9350611398818560208601611349565b80840191505092915050565b60006113b08284611373565b915081905092915050565b600060a0820190506113d06000830188611309565b6113dd6020830187611309565b6113ea6040830186611309565b6113f76060830185611309565b6114046080830184611309565b9695505050505050565b7f4e487b7100000000000000000000000000000000000000000000000000000000600052601160045260246000fd5b6000611448826112ff565b9150611453836112ff565b9250828202611461816112ff565b91507f800000000000000000000000000000000000000000000000000000000000000084146000841216156114995761149861140e565b5b82820584148315176114ae576114ad61140e565b5b5092915050565b60006114c0826112ff565b91506114cb836112ff565b9250828201905082811215600083121683821260008412151617156114f3576114f261140e565b5b92915050565b6000611504826112ff565b915061150f836112ff565b92508282039050818112600084121682821360008512151617156115365761153561140e565b5b92915050565b7f4e487b7100000000000000000000000000000000000000000000000000000000600052601260045260246000fd5b6000611576826112ff565b9150611581836112ff565b9250826115915761159061153c565b5b600160000383147f8000000000000000000000000000000000000000000000000000000000000000831416156115ca576115c961140e565b5b82820590509291505056fea2646970667358221220a1299636f125d2423e78ec543e2c6e710a0b5400f7a1ff4e94a4da45d77db5d564736f6c63430008110033",
    "linkReferences": {},
    "deployedLinkReferences": {}
}