{
    "_format": "hh-sol-artifact-1",
    "contractName": "ScienceIndex",
    "sourceName": "contracts/scienceIndex.sol",
    "abi": [
        {
            "inputs": [
                {
                    "internalType": "int256",
                    "name": "w",
                    "type": "int256"
                }
            ],
            "stateMutability": "nonpayable",
            "type": "constructor"
        },
        {
            "anonymous": false,
            "inputs": [
                {
                    "indexed": true,
                    "internalType": "string",
                    "name": "semanticID",
                    "type": "string"
                },
                {
                    "indexed": false,
                    "internalType": "uint256",
                    "name": "scienceIndex",
                    "type": "uint256"
                }
            ],
            "name": "scienceIndexUpdate",
            "type": "event"
        },
        {
            "inputs": [
                {
                    "internalType": "string",
                    "name": "semanticID",
                    "type": "string"
                }
            ],
            "name": "getScienceIndex",
            "outputs": [],
            "stateMutability": "nonpayable",
            "type": "function"
        },
        {
            "inputs": [],
            "name": "weight",
            "outputs": [
                {
                    "internalType": "int256",
                    "name": "",
                    "type": "int256"
                }
            ],
            "stateMutability": "view",
            "type": "function"
        }
    ],
    "bytecode": "0x608060405234801561001057600080fd5b5060405161050f38038061050f8339818101604052810190610032919061007a565b80600081905550506100a7565b600080fd5b6000819050919050565b61005781610044565b811461006257600080fd5b50565b6000815190506100748161004e565b92915050565b6000602082840312156100905761008f61003f565b5b600061009e84828501610065565b91505092915050565b610459806100b66000396000f3fe608060405234801561001057600080fd5b50600436106100365760003560e01c8063067c0fa31461003b578063a1aab33f14610057575b600080fd5b61005560048036038101906100509190610273565b610075565b005b61005f6100e4565b60405161006c91906102d5565b60405180910390f35b6000610080826100ea565b905061008b816100f4565b816040516100999190610361565b60405180910390207f63e9d57b7eefb502d13806be38a51d3ddfc9eec16a0d55d38b16b1a57560261d6100cb8361010e565b6040516100d89190610391565b60405180910390a25050565b60005481565b6060819050919050565b600080815480929190610106906103db565b919050555050565b600080549050919050565b6000604051905090565b600080fd5b600080fd5b600080fd5b600080fd5b6000601f19601f8301169050919050565b7f4e487b7100000000000000000000000000000000000000000000000000000000600052604160045260246000fd5b61018082610137565b810181811067ffffffffffffffff8211171561019f5761019e610148565b5b80604052505050565b60006101b2610119565b90506101be8282610177565b919050565b600067ffffffffffffffff8211156101de576101dd610148565b5b6101e782610137565b9050602081019050919050565b82818337600083830152505050565b6000610216610211846101c3565b6101a8565b90508281526020810184848401111561023257610231610132565b5b61023d8482856101f4565b509392505050565b600082601f83011261025a5761025961012d565b5b813561026a848260208601610203565b91505092915050565b60006020828403121561028957610288610123565b5b600082013567ffffffffffffffff8111156102a7576102a6610128565b5b6102b384828501610245565b91505092915050565b6000819050919050565b6102cf816102bc565b82525050565b60006020820190506102ea60008301846102c6565b92915050565b600081519050919050565b600081905092915050565b60005b83811015610324578082015181840152602081019050610309565b60008484015250505050565b600061033b826102f0565b61034581856102fb565b9350610355818560208601610306565b80840191505092915050565b600061036d8284610330565b915081905092915050565b6000819050919050565b61038b81610378565b82525050565b60006020820190506103a66000830184610382565b92915050565b7f4e487b7100000000000000000000000000000000000000000000000000000000600052601160045260246000fd5b60006103e6826102bc565b91507f7fffffffffffffffffffffffffffffffffffffffffffffffffffffffffffffff8203610418576104176103ac565b5b60018201905091905056fea26469706673582212202cc2b256a9b725ced65ecbc95013e34294b09423789ee62b3c2e862105cfe55e64736f6c63430008110033",
    "linkReferences": {},
    "deployedLinkReferences": {}
}