{
    "_format": "hh-sol-artifact-1",
    "contractName": "ScienceIndex",
    "sourceName": "contracts/scienceIndex.sol",
    "abi": [
        {
            "inputs": [
                {
                    "internalType": "int256",
                    "name": "yi",
                    "type": "int256"
                },
                {
                    "internalType": "int256",
                    "name": "cl",
                    "type": "int256"
                },
                {
                    "internalType": "int256",
                    "name": "pc",
                    "type": "int256"
                },
                {
                    "internalType": "int256",
                    "name": "cc",
                    "type": "int256"
                },
                {
                    "internalType": "uint256",
                    "name": "dp",
                    "type": "uint256"
                }
            ],
            "stateMutability": "nonpayable",
            "type": "constructor"
        },
        {
            "anonymous": false,
            "inputs": [
                {
                    "indexed": true,
                    "internalType": "string",
                    "name": "semanticID",
                    "type": "string"
                },
                {
                    "indexed": false,
                    "internalType": "int256",
                    "name": "scienceIndex",
                    "type": "int256"
                },
                {
                    "indexed": false,
                    "internalType": "int256",
                    "name": "hIndex",
                    "type": "int256"
                },
                {
                    "indexed": false,
                    "internalType": "int256",
                    "name": "careerLength",
                    "type": "int256"
                },
                {
                    "indexed": false,
                    "internalType": "int256",
                    "name": "paperCount",
                    "type": "int256"
                },
                {
                    "indexed": false,
                    "internalType": "int256",
                    "name": "citationCount",
                    "type": "int256"
                }
            ],
            "name": "scienceIndexUpdate",
            "type": "event"
        },
        {
            "inputs": [],
            "name": "careerLength",
            "outputs": [
                {
                    "internalType": "int256",
                    "name": "",
                    "type": "int256"
                }
            ],
            "stateMutability": "view",
            "type": "function"
        },
        {
            "inputs": [],
            "name": "citationCount",
            "outputs": [
                {
                    "internalType": "int256",
                    "name": "",
                    "type": "int256"
                }
            ],
            "stateMutability": "view",
            "type": "function"
        },
        {
            "inputs": [],
            "name": "dataPoints",
            "outputs": [
                {
                    "internalType": "uint256",
                    "name": "",
                    "type": "uint256"
                }
            ],
            "stateMutability": "view",
            "type": "function"
        },
        {
            "inputs": [
                {
                    "internalType": "string",
                    "name": "semanticID",
                    "type": "string"
                }
            ],
            "name": "getScienceIndex",
            "outputs": [],
            "stateMutability": "nonpayable",
            "type": "function"
        },
        {
            "inputs": [],
            "name": "paperCount",
            "outputs": [
                {
                    "internalType": "int256",
                    "name": "",
                    "type": "int256"
                }
            ],
            "stateMutability": "view",
            "type": "function"
        },
        {
            "inputs": [],
            "name": "yIntercept",
            "outputs": [
                {
                    "internalType": "int256",
                    "name": "",
                    "type": "int256"
                }
            ],
            "stateMutability": "view",
            "type": "function"
        }
    ],
    "bytecode": "0x608060405234801561001057600080fd5b5060405161091d38038061091d833981810160405281019061003291906100d0565b8460008190555083600181905550826002819055508160038190555080600481905550505050505061014b565b600080fd5b6000819050919050565b61007781610064565b811461008257600080fd5b50565b6000815190506100948161006e565b92915050565b6000819050919050565b6100ad8161009a565b81146100b857600080fd5b50565b6000815190506100ca816100a4565b92915050565b600080600080600060a086880312156100ec576100eb61005f565b5b60006100fa88828901610085565b955050602061010b88828901610085565b945050604061011c88828901610085565b935050606061012d88828901610085565b925050608061013e888289016100bb565b9150509295509295909350565b6107c38061015a6000396000f3fe608060405234801561001057600080fd5b50600436106100625760003560e01c8063067c0fa3146100675780632d8b3ee8146100835780635c3b055d146100a157806381884756146100bf578063a56c2cb9146100dd578063cc5c0b6d146100fb575b600080fd5b610081600480360381019061007c9190610406565b610119565b005b61008b6101a3565b6040516100989190610468565b60405180910390f35b6100a96101a9565b6040516100b6919061049c565b60405180910390f35b6100c76101af565b6040516100d4919061049c565b60405180910390f35b6100e56101b5565b6040516100f2919061049c565b60405180910390f35b6101036101bb565b604051610110919061049c565b60405180910390f35b600080600080610128856101c1565b935093509350935061013c848484846101ea565b8460405161014a9190610528565b60405180910390207f458df47e0678c1abf8b5c0bc504b9d474c0d1dd13f1fb8390a60597acb000f7161017f86868686610211565b8686868660405161019495949392919061053f565b60405180910390a25050505050565b60045481565b60005481565b60035481565b60025481565b60015481565b600080600080674563918244f4000080674563918244f400008093509350935093509193509193565b670de0b6b3a76400006004600082825461020491906105c1565b9250508190555050505050565b600084670de0b6b3a76400008360035461022b91906105f5565b610235919061069c565b670de0b6b3a76400008560025461024c91906105f5565b610256919061069c565b670de0b6b3a76400008760015461026d91906105f5565b610277919061069c565b6000546102849190610706565b61028e9190610706565b6102989190610706565b6102a2919061074a565b9050949350505050565b6000604051905090565b600080fd5b600080fd5b600080fd5b600080fd5b6000601f19601f8301169050919050565b7f4e487b7100000000000000000000000000000000000000000000000000000000600052604160045260246000fd5b610313826102ca565b810181811067ffffffffffffffff82111715610332576103316102db565b5b80604052505050565b60006103456102ac565b9050610351828261030a565b919050565b600067ffffffffffffffff821115610371576103706102db565b5b61037a826102ca565b9050602081019050919050565b82818337600083830152505050565b60006103a96103a484610356565b61033b565b9050828152602081018484840111156103c5576103c46102c5565b5b6103d0848285610387565b509392505050565b600082601f8301126103ed576103ec6102c0565b5b81356103fd848260208601610396565b91505092915050565b60006020828403121561041c5761041b6102b6565b5b600082013567ffffffffffffffff81111561043a576104396102bb565b5b610446848285016103d8565b91505092915050565b6000819050919050565b6104628161044f565b82525050565b600060208201905061047d6000830184610459565b92915050565b6000819050919050565b61049681610483565b82525050565b60006020820190506104b1600083018461048d565b92915050565b600081519050919050565b600081905092915050565b60005b838110156104eb5780820151818401526020810190506104d0565b60008484015250505050565b6000610502826104b7565b61050c81856104c2565b935061051c8185602086016104cd565b80840191505092915050565b600061053482846104f7565b915081905092915050565b600060a082019050610554600083018861048d565b610561602083018761048d565b61056e604083018661048d565b61057b606083018561048d565b610588608083018461048d565b9695505050505050565b7f4e487b7100000000000000000000000000000000000000000000000000000000600052601160045260246000fd5b60006105cc8261044f565b91506105d78361044f565b92508282019050808211156105ef576105ee610592565b5b92915050565b600061060082610483565b915061060b83610483565b925082820261061981610483565b91507f8000000000000000000000000000000000000000000000000000000000000000841460008412161561065157610650610592565b5b828205841483151761066657610665610592565b5b5092915050565b7f4e487b7100000000000000000000000000000000000000000000000000000000600052601260045260246000fd5b60006106a782610483565b91506106b283610483565b9250826106c2576106c161066d565b5b600160000383147f8000000000000000000000000000000000000000000000000000000000000000831416156106fb576106fa610592565b5b828205905092915050565b600061071182610483565b915061071c83610483565b92508282019050828112156000831216838212600084121516171561074457610743610592565b5b92915050565b600061075582610483565b915061076083610483565b925082820390508181126000841216828213600085121516171561078757610786610592565b5b9291505056fea26469706673582212207a08b433aa2f3dd227acd098c65e67305949a794eb97c6f42755eeb9506ef50c64736f6c63430008110033",
    "linkReferences": {},
    "deployedLinkReferences": {}
}